{
  "_format": "hh-sol-artifact-1",
  "contractName": "ShadowLedger",
  "sourceName": "contracts/ShadowLedger.sol",
  "abi": [
    {
      "inputs": [
        {
          "internalType": "address",
          "name": "admin",
          "type": "address"
        }
      ],
      "stateMutability": "nonpayable",
      "type": "constructor"
    },
    {
      "inputs": [],
      "name": "AccessControlBadConfirmation",
      "type": "error"
    },
    {
      "inputs": [
        {
          "internalType": "address",
          "name": "account",
          "type": "address"
        },
        {
          "internalType": "bytes32",
          "name": "neededRole",
          "type": "bytes32"
        }
      ],
      "name": "AccessControlUnauthorizedAccount",
      "type": "error"
    },
    {
      "anonymous": false,
      "inputs": [
        {
          "indexed": true,
          "internalType": "bytes32",
          "name": "hash",
          "type": "bytes32"
        },
        {
          "indexed": true,
          "internalType": "address",
          "name": "issuer",
          "type": "address"
        },
        {
          "indexed": false,
          "internalType": "uint256",
          "name": "version",
          "type": "uint256"
        },
        {
          "indexed": false,
          "internalType": "uint256",
          "name": "timestamp",
          "type": "uint256"
        }
      ],
      "name": "DocumentRegistered",
      "type": "event"
    },
    {
      "anonymous": false,
      "inputs": [
        {
          "indexed": true,
          "internalType": "bytes32",
          "name": "hash",
          "type": "bytes32"
        },
        {
          "indexed": true,
          "internalType": "address",
          "name": "verifier",
          "type": "address"
        },
        {
          "indexed": false,
          "internalType": "bool",
          "name": "exists",
          "type": "bool"
        }
      ],
      "name": "DocumentVerified",
      "type": "event"
    },
    {
      "anonymous": false,
      "inputs": [
        {
          "indexed": true,
          "internalType": "bytes32",
          "name": "role",
          "type": "bytes32"
        },
        {
          "indexed": true,
          "internalType": "bytes32",
          "name": "previousAdminRole",
          "type": "bytes32"
        },
        {
          "indexed": true,
          "internalType": "bytes32",
          "name": "newAdminRole",
          "type": "bytes32"
        }
      ],
      "name": "RoleAdminChanged",
      "type": "event"
    },
    {
      "anonymous": false,
      "inputs": [
        {
          "indexed": true,
          "internalType": "bytes32",
          "name": "role",
          "type": "bytes32"
        },
        {
          "indexed": true,
          "internalType": "address",
          "name": "account",
          "type": "address"
        },
        {
          "indexed": true,
          "internalType": "address",
          "name": "sender",
          "type": "address"
        }
      ],
      "name": "RoleGranted",
      "type": "event"
    },
    {
      "anonymous": false,
      "inputs": [
        {
          "indexed": true,
          "internalType": "bytes32",
          "name": "role",
          "type": "bytes32"
        },
        {
          "indexed": true,
          "internalType": "address",
          "name": "account",
          "type": "address"
        },
        {
          "indexed": true,
          "internalType": "address",
          "name": "sender",
          "type": "address"
        }
      ],
      "name": "RoleRevoked",
      "type": "event"
    },
    {
      "inputs": [],
      "name": "ADMIN_ROLE",
      "outputs": [
        {
          "internalType": "bytes32",
          "name": "",
          "type": "bytes32"
        }
      ],
      "stateMutability": "view",
      "type": "function"
    },
    {
      "inputs": [],
      "name": "DEFAULT_ADMIN_ROLE",
      "outputs": [
        {
          "internalType": "bytes32",
          "name": "",
          "type": "bytes32"
        }
      ],
      "stateMutability": "view",
      "type": "function"
    },
    {
      "inputs": [],
      "name": "ISSUER_ROLE",
      "outputs": [
        {
          "internalType": "bytes32",
          "name": "",
          "type": "bytes32"
        }
      ],
      "stateMutability": "view",
      "type": "function"
    },
    {
      "inputs": [
        {
          "internalType": "bytes32",
          "name": "_hash",
          "type": "bytes32"
        }
      ],
      "name": "getDocumentVersions",
      "outputs": [
        {
          "components": [
            {
              "internalType": "bytes32",
              "name": "hash",
              "type": "bytes32"
            },
            {
              "internalType": "address",
              "name": "issuer",
              "type": "address"
            },
            {
              "internalType": "uint256",
              "name": "timestamp",
              "type": "uint256"
            },
            {
              "internalType": "uint256",
              "name": "version",
              "type": "uint256"
            }
          ],
          "internalType": "struct ShadowLedgerStorage.Document[]",
          "name": "",
          "type": "tuple[]"
        }
      ],
      "stateMutability": "view",
      "type": "function"
    },
    {
      "inputs": [
        {
          "internalType": "bytes32",
          "name": "role",
          "type": "bytes32"
        }
      ],
      "name": "getRoleAdmin",
      "outputs": [
        {
          "internalType": "bytes32",
          "name": "",
          "type": "bytes32"
        }
      ],
      "stateMutability": "view",
      "type": "function"
    },
    {
      "inputs": [
        {
          "internalType": "address",
          "name": "account",
          "type": "address"
        }
      ],
      "name": "grantIssuer",
      "outputs": [],
      "stateMutability": "nonpayable",
      "type": "function"
    },
    {
      "inputs": [
        {
          "internalType": "bytes32",
          "name": "role",
          "type": "bytes32"
        },
        {
          "internalType": "address",
          "name": "account",
          "type": "address"
        }
      ],
      "name": "grantRole",
      "outputs": [],
      "stateMutability": "nonpayable",
      "type": "function"
    },
    {
      "inputs": [
        {
          "internalType": "bytes32",
          "name": "role",
          "type": "bytes32"
        },
        {
          "internalType": "address",
          "name": "account",
          "type": "address"
        }
      ],
      "name": "hasRole",
      "outputs": [
        {
          "internalType": "bool",
          "name": "",
          "type": "bool"
        }
      ],
      "stateMutability": "view",
      "type": "function"
    },
    {
      "inputs": [
        {
          "internalType": "bytes32",
          "name": "_hash",
          "type": "bytes32"
        }
      ],
      "name": "registerDocument",
      "outputs": [],
      "stateMutability": "nonpayable",
      "type": "function"
    },
    {
      "inputs": [
        {
          "internalType": "bytes32",
          "name": "role",
          "type": "bytes32"
        },
        {
          "internalType": "address",
          "name": "callerConfirmation",
          "type": "address"
        }
      ],
      "name": "renounceRole",
      "outputs": [],
      "stateMutability": "nonpayable",
      "type": "function"
    },
    {
      "inputs": [
        {
          "internalType": "address",
          "name": "account",
          "type": "address"
        }
      ],
      "name": "revokeIssuer",
      "outputs": [],
      "stateMutability": "nonpayable",
      "type": "function"
    },
    {
      "inputs": [
        {
          "internalType": "bytes32",
          "name": "role",
          "type": "bytes32"
        },
        {
          "internalType": "address",
          "name": "account",
          "type": "address"
        }
      ],
      "name": "revokeRole",
      "outputs": [],
      "stateMutability": "nonpayable",
      "type": "function"
    },
    {
      "inputs": [
        {
          "internalType": "bytes4",
          "name": "interfaceId",
          "type": "bytes4"
        }
      ],
      "name": "supportsInterface",
      "outputs": [
        {
          "internalType": "bool",
          "name": "",
          "type": "bool"
        }
      ],
      "stateMutability": "view",
      "type": "function"
    },
    {
      "inputs": [
        {
          "internalType": "bytes32",
          "name": "_hash",
          "type": "bytes32"
        }
      ],
      "name": "verifyDocument",
      "outputs": [
        {
          "internalType": "bool",
          "name": "exists",
          "type": "bool"
        },
        {
          "internalType": "address",
          "name": "issuer",
          "type": "address"
        },
        {
          "internalType": "uint256",
          "name": "timestamp",
          "type": "uint256"
        },
        {
          "internalType": "uint256",
          "name": "version",
          "type": "uint256"
        }
      ],
      "stateMutability": "nonpayable",
      "type": "function"
    }
  ],
  "bytecode": "0x60806040523480156200001157600080fd5b506040516200145638038062001456833981810160405281019062000037919062000269565b806200004d6000801b826200008960201b60201c565b50620000807fa49807205ce4d355092ef5a8a18f56e8913cf4a201fbe287825b095693c21775826200008960201b60201c565b5050506200029b565b60006200009d83836200018c60201b60201c565b6200018157600180600085815260200190815260200160002060000160008473ffffffffffffffffffffffffffffffffffffffff1673ffffffffffffffffffffffffffffffffffffffff16815260200190815260200160002060006101000a81548160ff0219169083151502179055506200011d620001f760201b60201c565b73ffffffffffffffffffffffffffffffffffffffff168273ffffffffffffffffffffffffffffffffffffffff16847f2f8788117e7eff1d82e926ec794901d17c78024a50270940304540a733656f0d60405160405180910390a46001905062000186565b600090505b92915050565b60006001600084815260200190815260200160002060000160008373ffffffffffffffffffffffffffffffffffffffff1673ffffffffffffffffffffffffffffffffffffffff16815260200190815260200160002060009054906101000a900460ff16905092915050565b600033905090565b600080fd5b600073ffffffffffffffffffffffffffffffffffffffff82169050919050565b6000620002318262000204565b9050919050565b620002438162000224565b81146200024f57600080fd5b50565b600081519050620002638162000238565b92915050565b600060208284031215620002825762000281620001ff565b5b6000620002928482850162000252565b91505092915050565b6111ab80620002ab6000396000f3fe608060405234801561001057600080fd5b50600436106100e95760003560e01c80637cbb08191161008c5780639b131974116100665780639b1319741461025a578063a217fddf14610276578063d547741f14610294578063fe35089f146102b0576100e9565b80637cbb0819146101dc57806382aefa241461020c57806391d148541461022a576100e9565b80632f2ff15d116100c85780632f2ff15d1461016a5780633068bffd1461018657806336568abe146101a257806375b238fc146101be576100e9565b8062629679146100ee57806301ffc9a71461010a578063248a9ca31461013a575b600080fd5b61010860048036038101906101039190610ce8565b6102e3565b005b610124600480360381019061011f9190610d6d565b61033b565b6040516101319190610db5565b60405180910390f35b610154600480360381019061014f9190610e06565b6103b5565b6040516101619190610e42565b60405180910390f35b610184600480360381019061017f9190610e5d565b6103d5565b005b6101a0600480360381019061019b9190610ce8565b6103f7565b005b6101bc60048036038101906101b79190610e5d565b61044f565b005b6101c66104ca565b6040516101d39190610e42565b60405180910390f35b6101f660048036038101906101f19190610e06565b6104ee565b6040516102039190610fd8565b60405180910390f35b6102146105d3565b6040516102219190610e42565b60405180910390f35b610244600480360381019061023f9190610e5d565b6105f7565b6040516102519190610db5565b60405180910390f35b610274600480360381019061026f9190610e06565b610662565b005b61027e6107e1565b60405161028b9190610e42565b60405180910390f35b6102ae60048036038101906102a99190610e5d565b6107e8565b005b6102ca60048036038101906102c59190610e06565b61080a565b6040516102da9493929190611018565b60405180910390f35b7fa49807205ce4d355092ef5a8a18f56e8913cf4a201fbe287825b095693c2177561030d816109ca565b6103377f114e74f6ea3bd819998f78687bfcb11b140da08e9b7d222fa9c1f1ba1f2aa122836107e8565b5050565b60007f7965db0b000000000000000000000000000000000000000000000000000000007bffffffffffffffffffffffffffffffffffffffffffffffffffffffff1916827bffffffffffffffffffffffffffffffffffffffffffffffffffffffff191614806103ae57506103ad826109de565b5b9050919050565b600060016000838152602001908152602001600020600101549050919050565b6103de826103b5565b6103e7816109ca565b6103f18383610a48565b50505050565b7fa49807205ce4d355092ef5a8a18f56e8913cf4a201fbe287825b095693c21775610421816109ca565b61044b7f114e74f6ea3bd819998f78687bfcb11b140da08e9b7d222fa9c1f1ba1f2aa122836103d5565b5050565b610457610b39565b73ffffffffffffffffffffffffffffffffffffffff168173ffffffffffffffffffffffffffffffffffffffff16146104bb576040517f6697b23200000000000000000000000000000000000000000000000000000000815260040160405180910390fd5b6104c58282610b41565b505050565b7fa49807205ce4d355092ef5a8a18f56e8913cf4a201fbe287825b095693c2177581565b6060600080838152602001908152602001600020805480602002602001604051908101604052809291908181526020016000905b828210156105c85783829060005260206000209060040201604051806080016040529081600082015481526020016001820160009054906101000a900473ffffffffffffffffffffffffffffffffffffffff1673ffffffffffffffffffffffffffffffffffffffff1673ffffffffffffffffffffffffffffffffffffffff1681526020016002820154815260200160038201548152505081526020019060010190610522565b505050509050919050565b7f114e74f6ea3bd819998f78687bfcb11b140da08e9b7d222fa9c1f1ba1f2aa12281565b60006001600084815260200190815260200160002060000160008373ffffffffffffffffffffffffffffffffffffffff1673ffffffffffffffffffffffffffffffffffffffff16815260200190815260200160002060009054906101000a900460ff16905092915050565b7f114e74f6ea3bd819998f78687bfcb11b140da08e9b7d222fa9c1f1ba1f2aa12261068c816109ca565b60006001600080858152602001908152602001600020805490506106b0919061108c565b905060008084815260200190815260200160002060405180608001604052808581526020013373ffffffffffffffffffffffffffffffffffffffff1681526020014281526020018381525090806001815401808255809150506001900390600052602060002090600402016000909190919091506000820151816000015560208201518160010160006101000a81548173ffffffffffffffffffffffffffffffffffffffff021916908373ffffffffffffffffffffffffffffffffffffffff160217905550604082015181600201556060820151816003015550503373ffffffffffffffffffffffffffffffffffffffff16837f1a98ac04828d17bd3a499012d304abd61cde4a8c9e2a6aa9de6537a0fa04045683426040516107d49291906110c0565b60405180910390a3505050565b6000801b81565b6107f1826103b5565b6107fa816109ca565b6108048383610b41565b50505050565b600080600080600080600087815260200190815260200160002080549050905060008103610896573373ffffffffffffffffffffffffffffffffffffffff16867f6894ebbaf406311560473c5438f7c75d70dc611e024968e8f8596dbd034c5084600060405161087a9190610db5565b60405180910390a36000806000809450945094509450506109c3565b60008060008881526020019081526020016000206001836108b791906110e9565b815481106108c8576108c761111d565b5b9060005260206000209060040201604051806080016040529081600082015481526020016001820160009054906101000a900473ffffffffffffffffffffffffffffffffffffffff1673ffffffffffffffffffffffffffffffffffffffff1673ffffffffffffffffffffffffffffffffffffffff1681526020016002820154815260200160038201548152505090503373ffffffffffffffffffffffffffffffffffffffff16877f6894ebbaf406311560473c5438f7c75d70dc611e024968e8f8596dbd034c5084600160405161099f9190610db5565b60405180910390a36001816020015182604001518360600151955095509550955050505b9193509193565b6109db816109d6610b39565b610c34565b50565b60007f01ffc9a7000000000000000000000000000000000000000000000000000000007bffffffffffffffffffffffffffffffffffffffffffffffffffffffff1916827bffffffffffffffffffffffffffffffffffffffffffffffffffffffff1916149050919050565b6000610a5483836105f7565b610b2e57600180600085815260200190815260200160002060000160008473ffffffffffffffffffffffffffffffffffffffff1673ffffffffffffffffffffffffffffffffffffffff16815260200190815260200160002060006101000a81548160ff021916908315150217905550610acb610b39565b73ffffffffffffffffffffffffffffffffffffffff168273ffffffffffffffffffffffffffffffffffffffff16847f2f8788117e7eff1d82e926ec794901d17c78024a50270940304540a733656f0d60405160405180910390a460019050610b33565b600090505b92915050565b600033905090565b6000610b4d83836105f7565b15610c295760006001600085815260200190815260200160002060000160008473ffffffffffffffffffffffffffffffffffffffff1673ffffffffffffffffffffffffffffffffffffffff16815260200190815260200160002060006101000a81548160ff021916908315150217905550610bc6610b39565b73ffffffffffffffffffffffffffffffffffffffff168273ffffffffffffffffffffffffffffffffffffffff16847ff6391f5c32d9c69d2a47ea670b442974b53935d1edc7fd64eb21e047a839171b60405160405180910390a460019050610c2e565b600090505b92915050565b610c3e82826105f7565b610c815780826040517fe2517d3f000000000000000000000000000000000000000000000000000000008152600401610c7892919061114c565b60405180910390fd5b5050565b600080fd5b600073ffffffffffffffffffffffffffffffffffffffff82169050919050565b6000610cb582610c8a565b9050919050565b610cc581610caa565b8114610cd057600080fd5b50565b600081359050610ce281610cbc565b92915050565b600060208284031215610cfe57610cfd610c85565b5b6000610d0c84828501610cd3565b91505092915050565b60007fffffffff0000000000000000000000000000000000000000000000000000000082169050919050565b610d4a81610d15565b8114610d5557600080fd5b50565b600081359050610d6781610d41565b92915050565b600060208284031215610d8357610d82610c85565b5b6000610d9184828501610d58565b91505092915050565b60008115159050919050565b610daf81610d9a565b82525050565b6000602082019050610dca6000830184610da6565b92915050565b6000819050919050565b610de381610dd0565b8114610dee57600080fd5b50565b600081359050610e0081610dda565b92915050565b600060208284031215610e1c57610e1b610c85565b5b6000610e2a84828501610df1565b91505092915050565b610e3c81610dd0565b82525050565b6000602082019050610e576000830184610e33565b92915050565b60008060408385031215610e7457610e73610c85565b5b6000610e8285828601610df1565b9250506020610e9385828601610cd3565b9150509250929050565b600081519050919050565b600082825260208201905092915050565b6000819050602082019050919050565b610ed281610dd0565b82525050565b610ee181610caa565b82525050565b6000819050919050565b610efa81610ee7565b82525050565b608082016000820151610f166000850182610ec9565b506020820151610f296020850182610ed8565b506040820151610f3c6040850182610ef1565b506060820151610f4f6060850182610ef1565b50505050565b6000610f618383610f00565b60808301905092915050565b6000602082019050919050565b6000610f8582610e9d565b610f8f8185610ea8565b9350610f9a83610eb9565b8060005b83811015610fcb578151610fb28882610f55565b9750610fbd83610f6d565b925050600181019050610f9e565b5085935050505092915050565b60006020820190508181036000830152610ff28184610f7a565b905092915050565b61100381610caa565b82525050565b61101281610ee7565b82525050565b600060808201905061102d6000830187610da6565b61103a6020830186610ffa565b6110476040830185611009565b6110546060830184611009565b95945050505050565b7f4e487b7100000000000000000000000000000000000000000000000000000000600052601160045260246000fd5b600061109782610ee7565b91506110a283610ee7565b92508282019050808211156110ba576110b961105d565b5b92915050565b60006040820190506110d56000830185611009565b6110e26020830184611009565b9392505050565b60006110f482610ee7565b91506110ff83610ee7565b92508282039050818111156111175761111661105d565b5b92915050565b7f4e487b7100000000000000000000000000000000000000000000000000000000600052603260045260246000fd5b60006040820190506111616000830185610ffa565b61116e6020830184610e33565b939250505056fea26469706673582212207c79962e7fc0be1fa9d88d637089a4b0f6a079284966a34f48ed6401ad13dadf64736f6c63430008180033",
  "linkReferences": {},
  "deployedLinkReferences": {}
}